{
  "_format": "hh-sol-artifact-1",
  "contractName": "GameNyxNFT",
  "sourceName": "contracts/GameNyxNFT.sol",
  "abi": [
    {
      "inputs": [],
      "stateMutability": "nonpayable",
      "type": "constructor"
    },
    {
      "anonymous": false,
      "inputs": [
        {
          "indexed": true,
          "internalType": "address",
          "name": "owner",
          "type": "address"
        },
        {
          "indexed": true,
          "internalType": "address",
          "name": "approved",
          "type": "address"
        },
        {
          "indexed": true,
          "internalType": "uint256",
          "name": "tokenId",
          "type": "uint256"
        }
      ],
      "name": "Approval",
      "type": "event"
    },
    {
      "anonymous": false,
      "inputs": [
        {
          "indexed": true,
          "internalType": "address",
          "name": "owner",
          "type": "address"
        },
        {
          "indexed": true,
          "internalType": "address",
          "name": "operator",
          "type": "address"
        },
        {
          "indexed": false,
          "internalType": "bool",
          "name": "approved",
          "type": "bool"
        }
      ],
      "name": "ApprovalForAll",
      "type": "event"
    },
    {
      "anonymous": false,
      "inputs": [
        {
          "indexed": true,
          "internalType": "address",
          "name": "previousOwner",
          "type": "address"
        },
        {
          "indexed": true,
          "internalType": "address",
          "name": "newOwner",
          "type": "address"
        }
      ],
      "name": "OwnershipTransferred",
      "type": "event"
    },
    {
      "anonymous": false,
      "inputs": [
        {
          "indexed": true,
          "internalType": "address",
          "name": "from",
          "type": "address"
        },
        {
          "indexed": true,
          "internalType": "address",
          "name": "to",
          "type": "address"
        },
        {
          "indexed": true,
          "internalType": "uint256",
          "name": "tokenId",
          "type": "uint256"
        }
      ],
      "name": "Transfer",
      "type": "event"
    },
    {
      "inputs": [],
      "name": "MAX_SUPPLY",
      "outputs": [
        {
          "internalType": "uint256",
          "name": "",
          "type": "uint256"
        }
      ],
      "stateMutability": "view",
      "type": "function"
    },
    {
      "inputs": [],
      "name": "MINTING_FEE",
      "outputs": [
        {
          "internalType": "uint256",
          "name": "",
          "type": "uint256"
        }
      ],
      "stateMutability": "view",
      "type": "function"
    },
    {
      "inputs": [
        {
          "internalType": "address",
          "name": "to",
          "type": "address"
        },
        {
          "internalType": "uint256",
          "name": "tokenId",
          "type": "uint256"
        }
      ],
      "name": "approve",
      "outputs": [],
      "stateMutability": "nonpayable",
      "type": "function"
    },
    {
      "inputs": [
        {
          "internalType": "address",
          "name": "owner",
          "type": "address"
        }
      ],
      "name": "balanceOf",
      "outputs": [
        {
          "internalType": "uint256",
          "name": "",
          "type": "uint256"
        }
      ],
      "stateMutability": "view",
      "type": "function"
    },
    {
      "inputs": [
        {
          "internalType": "uint256",
          "name": "tokenId",
          "type": "uint256"
        }
      ],
      "name": "burn",
      "outputs": [],
      "stateMutability": "nonpayable",
      "type": "function"
    },
    {
      "inputs": [
        {
          "internalType": "uint256",
          "name": "tokenId",
          "type": "uint256"
        }
      ],
      "name": "getApproved",
      "outputs": [
        {
          "internalType": "address",
          "name": "",
          "type": "address"
        }
      ],
      "stateMutability": "view",
      "type": "function"
    },
    {
      "inputs": [],
      "name": "getContractBalance",
      "outputs": [
        {
          "internalType": "uint256",
          "name": "",
          "type": "uint256"
        }
      ],
      "stateMutability": "view",
      "type": "function"
    },
    {
      "inputs": [
        {
          "internalType": "address",
          "name": "owner",
          "type": "address"
        },
        {
          "internalType": "address",
          "name": "operator",
          "type": "address"
        }
      ],
      "name": "isApprovedForAll",
      "outputs": [
        {
          "internalType": "bool",
          "name": "",
          "type": "bool"
        }
      ],
      "stateMutability": "view",
      "type": "function"
    },
    {
      "inputs": [],
      "name": "name",
      "outputs": [
        {
          "internalType": "string",
          "name": "",
          "type": "string"
        }
      ],
      "stateMutability": "view",
      "type": "function"
    },
    {
      "inputs": [],
      "name": "owner",
      "outputs": [
        {
          "internalType": "address",
          "name": "",
          "type": "address"
        }
      ],
      "stateMutability": "view",
      "type": "function"
    },
    {
      "inputs": [
        {
          "internalType": "uint256",
          "name": "tokenId",
          "type": "uint256"
        }
      ],
      "name": "ownerOf",
      "outputs": [
        {
          "internalType": "address",
          "name": "",
          "type": "address"
        }
      ],
      "stateMutability": "view",
      "type": "function"
    },
    {
      "inputs": [],
      "name": "renounceOwnership",
      "outputs": [],
      "stateMutability": "nonpayable",
      "type": "function"
    },
    {
      "inputs": [
        {
          "internalType": "address",
          "name": "to",
          "type": "address"
        },
        {
          "internalType": "string",
          "name": "uri",
          "type": "string"
        }
      ],
      "name": "safeMint",
      "outputs": [],
      "stateMutability": "payable",
      "type": "function"
    },
    {
      "inputs": [
        {
          "internalType": "address",
          "name": "from",
          "type": "address"
        },
        {
          "internalType": "address",
          "name": "to",
          "type": "address"
        },
        {
          "internalType": "uint256",
          "name": "tokenId",
          "type": "uint256"
        }
      ],
      "name": "safeTransferFrom",
      "outputs": [],
      "stateMutability": "nonpayable",
      "type": "function"
    },
    {
      "inputs": [
        {
          "internalType": "address",
          "name": "from",
          "type": "address"
        },
        {
          "internalType": "address",
          "name": "to",
          "type": "address"
        },
        {
          "internalType": "uint256",
          "name": "tokenId",
          "type": "uint256"
        },
        {
          "internalType": "bytes",
          "name": "_data",
          "type": "bytes"
        }
      ],
      "name": "safeTransferFrom",
      "outputs": [],
      "stateMutability": "nonpayable",
      "type": "function"
    },
    {
      "inputs": [
        {
          "internalType": "address",
          "name": "operator",
          "type": "address"
        },
        {
          "internalType": "bool",
          "name": "approved",
          "type": "bool"
        }
      ],
      "name": "setApprovalForAll",
      "outputs": [],
      "stateMutability": "nonpayable",
      "type": "function"
    },
    {
      "inputs": [
        {
          "internalType": "bytes4",
          "name": "interfaceId",
          "type": "bytes4"
        }
      ],
      "name": "supportsInterface",
      "outputs": [
        {
          "internalType": "bool",
          "name": "",
          "type": "bool"
        }
      ],
      "stateMutability": "view",
      "type": "function"
    },
    {
      "inputs": [],
      "name": "symbol",
      "outputs": [
        {
          "internalType": "string",
          "name": "",
          "type": "string"
        }
      ],
      "stateMutability": "view",
      "type": "function"
    },
    {
      "inputs": [
        {
          "internalType": "uint256",
          "name": "tokenId",
          "type": "uint256"
        }
      ],
      "name": "tokenURI",
      "outputs": [
        {
          "internalType": "string",
          "name": "",
          "type": "string"
        }
      ],
      "stateMutability": "view",
      "type": "function"
    },
    {
      "inputs": [
        {
          "internalType": "address",
          "name": "from",
          "type": "address"
        },
        {
          "internalType": "address",
          "name": "to",
          "type": "address"
        },
        {
          "internalType": "uint256",
          "name": "tokenId",
          "type": "uint256"
        }
      ],
      "name": "transferFrom",
      "outputs": [],
      "stateMutability": "nonpayable",
      "type": "function"
    },
    {
      "inputs": [
        {
          "internalType": "address",
          "name": "newOwner",
          "type": "address"
        }
      ],
      "name": "transferOwnership",
      "outputs": [],
      "stateMutability": "nonpayable",
      "type": "function"
    },
    {
      "inputs": [],
      "name": "withdraw",
      "outputs": [],
      "stateMutability": "nonpayable",
      "type": "function"
    }
  ],
  "bytecode": "0x608060405266038d7ea4c68000600955610309600a553480156200002257600080fd5b506040518060400160405280600b81526020017f47616d654e7978204e46540000000000000000000000000000000000000000008152506040518060400160405280600381526020017f474e5800000000000000000000000000000000000000000000000000000000008152508160009080519060200190620000a7929190620001b7565b508060019080519060200190620000c0929190620001b7565b505050620000e3620000d7620000e960201b60201c565b620000f160201b60201c565b620002cc565b600033905090565b6000600760009054906101000a900473ffffffffffffffffffffffffffffffffffffffff16905081600760006101000a81548173ffffffffffffffffffffffffffffffffffffffff021916908373ffffffffffffffffffffffffffffffffffffffff1602179055508173ffffffffffffffffffffffffffffffffffffffff168173ffffffffffffffffffffffffffffffffffffffff167f8be0079c531659141344cd1fd0a4f28419497f9722a3daafe3b4186f6b6457e060405160405180910390a35050565b828054620001c59062000267565b90600052602060002090601f016020900481019282620001e9576000855562000235565b82601f106200020457805160ff191683800117855562000235565b8280016001018555821562000235579182015b828111156200023457825182559160200191906001019062000217565b5b50905062000244919062000248565b5090565b5b808211156200026357600081600090555060010162000249565b5090565b600060028204905060018216806200028057607f821691505b602082108114156200029757620002966200029d565b5b50919050565b7f4e487b7100000000000000000000000000000000000000000000000000000000600052602260045260246000fd5b6136ce80620002dc6000396000f3fe6080604052600436106101355760003560e01c806370a08231116100ab578063b88d4fde1161006f578063b88d4fde14610400578063c87b56dd14610429578063d204c45e14610466578063d642b4b114610482578063e985e9c5146104ad578063f2fde38b146104ea57610135565b806370a082311461032d578063715018a61461036a5780638da5cb5b1461038157806395d89b41146103ac578063a22cb465146103d757610135565b806332cb6b0c116100fd57806332cb6b0c146102315780633ccfd60b1461025c57806342842e0e1461027357806342966c681461029c5780636352211e146102c55780636f9fb98a1461030257610135565b806301ffc9a71461013a57806306fdde0314610177578063081812fc146101a2578063095ea7b3146101df57806323b872dd14610208575b600080fd5b34801561014657600080fd5b50610161600480360381019061015c91906124c7565b610513565b60405161016e919061297c565b60405180910390f35b34801561018357600080fd5b5061018c6105f5565b6040516101999190612997565b60405180910390f35b3480156101ae57600080fd5b506101c960048036038101906101c49190612519565b610687565b6040516101d69190612915565b60405180910390f35b3480156101eb57600080fd5b506102066004803603810190610201919061248b565b61070c565b005b34801561021457600080fd5b5061022f600480360381019061022a9190612331565b610824565b005b34801561023d57600080fd5b50610246610884565b6040516102539190612c59565b60405180910390f35b34801561026857600080fd5b5061027161088a565b005b34801561027f57600080fd5b5061029a60048036038101906102959190612331565b610999565b005b3480156102a857600080fd5b506102c360048036038101906102be9190612519565b6109b9565b005b3480156102d157600080fd5b506102ec60048036038101906102e79190612519565b610a15565b6040516102f99190612915565b60405180910390f35b34801561030e57600080fd5b50610317610ac7565b6040516103249190612c59565b60405180910390f35b34801561033957600080fd5b50610354600480360381019061034f91906122cc565b610acf565b6040516103619190612c59565b60405180910390f35b34801561037657600080fd5b5061037f610b87565b005b34801561038d57600080fd5b50610396610c0f565b6040516103a39190612915565b60405180910390f35b3480156103b857600080fd5b506103c1610c39565b6040516103ce9190612997565b60405180910390f35b3480156103e357600080fd5b506103fe60048036038101906103f991906123fb565b610ccb565b005b34801561040c57600080fd5b5061042760048036038101906104229190612380565b610ce1565b005b34801561043557600080fd5b50610450600480360381019061044b9190612519565b610d43565b60405161045d9190612997565b60405180910390f35b610480600480360381019061047b9190612437565b610d55565b005b34801561048e57600080fd5b50610497610dcb565b6040516104a49190612c59565b60405180910390f35b3480156104b957600080fd5b506104d460048036038101906104cf91906122f5565b610dd1565b6040516104e1919061297c565b60405180910390f35b3480156104f657600080fd5b50610511600480360381019061050c91906122cc565b610e65565b005b60007f80ac58cd000000000000000000000000000000000000000000000000000000007bffffffffffffffffffffffffffffffffffffffffffffffffffffffff1916827bffffffffffffffffffffffffffffffffffffffffffffffffffffffff191614806105de57507f5b5e139f000000000000000000000000000000000000000000000000000000007bffffffffffffffffffffffffffffffffffffffffffffffffffffffff1916827bffffffffffffffffffffffffffffffffffffffffffffffffffffffff1916145b806105ee57506105ed82610f5d565b5b9050919050565b60606000805461060490612eaf565b80601f016020809104026020016040519081016040528092919081815260200182805461063090612eaf565b801561067d5780601f106106525761010080835404028352916020019161067d565b820191906000526020600020905b81548152906001019060200180831161066057829003601f168201915b5050505050905090565b600061069282610fc7565b6106d1576040517f08c379a00000000000000000000000000000000000000000000000000000000081526004016106c890612b79565b60405180910390fd5b6004600083815260200190815260200160002060009054906101000a900473ffffffffffffffffffffffffffffffffffffffff169050919050565b600061071782610a15565b90508073ffffffffffffffffffffffffffffffffffffffff168373ffffffffffffffffffffffffffffffffffffffff161415610788576040517f08c379a000000000000000000000000000000000000000000000000000000000815260040161077f90612bf9565b60405180910390fd5b8073ffffffffffffffffffffffffffffffffffffffff166107a7611033565b73ffffffffffffffffffffffffffffffffffffffff1614806107d657506107d5816107d0611033565b610dd1565b5b610815576040517f08c379a000000000000000000000000000000000000000000000000000000000815260040161080c90612ab9565b60405180910390fd5b61081f838361103b565b505050565b61083561082f611033565b826110f4565b610874576040517f08c379a000000000000000000000000000000000000000000000000000000000815260040161086b90612c19565b60405180910390fd5b61087f8383836111d2565b505050565b600a5481565b610892611033565b73ffffffffffffffffffffffffffffffffffffffff166108b0610c0f565b73ffffffffffffffffffffffffffffffffffffffff1614610906576040517f08c379a00000000000000000000000000000000000000000000000000000000081526004016108fd90612b99565b60405180910390fd5b60004711610949576040517f08c379a000000000000000000000000000000000000000000000000000000000815260040161094090612bd9565b60405180910390fd5b610951610c0f565b73ffffffffffffffffffffffffffffffffffffffff166108fc479081150290604051600060405180830381858888f19350505050158015610996573d6000803e3d6000fd5b50565b6109b483838360405180602001604052806000815250610ce1565b505050565b6109ca6109c4611033565b826110f4565b610a09576040517f08c379a0000000000000000000000000000000000000000000000000000000008152600401610a0090612c39565b60405180910390fd5b610a1281611439565b50565b6000806002600084815260200190815260200160002060009054906101000a900473ffffffffffffffffffffffffffffffffffffffff169050600073ffffffffffffffffffffffffffffffffffffffff168173ffffffffffffffffffffffffffffffffffffffff161415610abe576040517f08c379a0000000000000000000000000000000000000000000000000000000008152600401610ab590612af9565b60405180910390fd5b80915050919050565b600047905090565b60008073ffffffffffffffffffffffffffffffffffffffff168273ffffffffffffffffffffffffffffffffffffffff161415610b40576040517f08c379a0000000000000000000000000000000000000000000000000000000008152600401610b3790612ad9565b60405180910390fd5b600360008373ffffffffffffffffffffffffffffffffffffffff1673ffffffffffffffffffffffffffffffffffffffff168152602001908152602001600020549050919050565b610b8f611033565b73ffffffffffffffffffffffffffffffffffffffff16610bad610c0f565b73ffffffffffffffffffffffffffffffffffffffff1614610c03576040517f08c379a0000000000000000000000000000000000000000000000000000000008152600401610bfa90612b99565b60405180910390fd5b610c0d6000611445565b565b6000600760009054906101000a900473ffffffffffffffffffffffffffffffffffffffff16905090565b606060018054610c4890612eaf565b80601f0160208091040260200160405190810160405280929190818152602001828054610c7490612eaf565b8015610cc15780601f10610c9657610100808354040283529160200191610cc1565b820191906000526020600020905b815481529060010190602001808311610ca457829003601f168201915b5050505050905090565b610cdd610cd6611033565b838361150b565b5050565b610cf2610cec611033565b836110f4565b610d31576040517f08c379a0000000000000000000000000000000000000000000000000000000008152600401610d2890612c19565b60405180910390fd5b610d3d84848484611678565b50505050565b6060610d4e826116d4565b9050919050565b600954341015610d9a576040517f08c379a0000000000000000000000000000000000000000000000000000000008152600401610d9190612a39565b60405180910390fd5b610da46008611826565b6000610db0600861183c565b9050610dbc838261184a565b610dc68183611868565b505050565b60095481565b6000600560008473ffffffffffffffffffffffffffffffffffffffff1673ffffffffffffffffffffffffffffffffffffffff16815260200190815260200160002060008373ffffffffffffffffffffffffffffffffffffffff1673ffffffffffffffffffffffffffffffffffffffff16815260200190815260200160002060009054906101000a900460ff16905092915050565b610e6d611033565b73ffffffffffffffffffffffffffffffffffffffff16610e8b610c0f565b73ffffffffffffffffffffffffffffffffffffffff1614610ee1576040517f08c379a0000000000000000000000000000000000000000000000000000000008152600401610ed890612b99565b60405180910390fd5b600073ffffffffffffffffffffffffffffffffffffffff168173ffffffffffffffffffffffffffffffffffffffff161415610f51576040517f08c379a0000000000000000000000000000000000000000000000000000000008152600401610f48906129d9565b60405180910390fd5b610f5a81611445565b50565b60007f01ffc9a7000000000000000000000000000000000000000000000000000000007bffffffffffffffffffffffffffffffffffffffffffffffffffffffff1916827bffffffffffffffffffffffffffffffffffffffffffffffffffffffff1916149050919050565b60008073ffffffffffffffffffffffffffffffffffffffff166002600084815260200190815260200160002060009054906101000a900473ffffffffffffffffffffffffffffffffffffffff1673ffffffffffffffffffffffffffffffffffffffff1614159050919050565b600033905090565b816004600083815260200190815260200160002060006101000a81548173ffffffffffffffffffffffffffffffffffffffff021916908373ffffffffffffffffffffffffffffffffffffffff160217905550808273ffffffffffffffffffffffffffffffffffffffff166110ae83610a15565b73ffffffffffffffffffffffffffffffffffffffff167f8c5be1e5ebec7d5bd14f71427d1e84f3dd0314c0f7b2291e5b200ac8c7c3b92560405160405180910390a45050565b60006110ff82610fc7565b61113e576040517f08c379a000000000000000000000000000000000000000000000000000000000815260040161113590612a99565b60405180910390fd5b600061114983610a15565b90508073ffffffffffffffffffffffffffffffffffffffff168473ffffffffffffffffffffffffffffffffffffffff16148061118b575061118a8185610dd1565b5b806111c957508373ffffffffffffffffffffffffffffffffffffffff166111b184610687565b73ffffffffffffffffffffffffffffffffffffffff16145b91505092915050565b8273ffffffffffffffffffffffffffffffffffffffff166111f282610a15565b73ffffffffffffffffffffffffffffffffffffffff1614611248576040517f08c379a000000000000000000000000000000000000000000000000000000000815260040161123f906129f9565b60405180910390fd5b600073ffffffffffffffffffffffffffffffffffffffff168273ffffffffffffffffffffffffffffffffffffffff1614156112b8576040517f08c379a00000000000000000000000000000000000000000000000000000000081526004016112af90612a59565b60405180910390fd5b6112c38383836118dc565b6112ce60008261103b565b6001600360008573ffffffffffffffffffffffffffffffffffffffff1673ffffffffffffffffffffffffffffffffffffffff168152602001908152602001600020600082825461131e9190612dc5565b925050819055506001600360008473ffffffffffffffffffffffffffffffffffffffff1673ffffffffffffffffffffffffffffffffffffffff16815260200190815260200160002060008282546113759190612d3e565b92505081905550816002600083815260200190815260200160002060006101000a81548173ffffffffffffffffffffffffffffffffffffffff021916908373ffffffffffffffffffffffffffffffffffffffff160217905550808273ffffffffffffffffffffffffffffffffffffffff168473ffffffffffffffffffffffffffffffffffffffff167fddf252ad1be2c89b69c2b068fc378daa952ba7f163c4a11628f55a4df523b3ef60405160405180910390a46114348383836118e1565b505050565b611442816118e6565b50565b6000600760009054906101000a900473ffffffffffffffffffffffffffffffffffffffff16905081600760006101000a81548173ffffffffffffffffffffffffffffffffffffffff021916908373ffffffffffffffffffffffffffffffffffffffff1602179055508173ffffffffffffffffffffffffffffffffffffffff168173ffffffffffffffffffffffffffffffffffffffff167f8be0079c531659141344cd1fd0a4f28419497f9722a3daafe3b4186f6b6457e060405160405180910390a35050565b8173ffffffffffffffffffffffffffffffffffffffff168373ffffffffffffffffffffffffffffffffffffffff16141561157a576040517f08c379a000000000000000000000000000000000000000000000000000000000815260040161157190612a79565b60405180910390fd5b80600560008573ffffffffffffffffffffffffffffffffffffffff1673ffffffffffffffffffffffffffffffffffffffff16815260200190815260200160002060008473ffffffffffffffffffffffffffffffffffffffff1673ffffffffffffffffffffffffffffffffffffffff16815260200190815260200160002060006101000a81548160ff0219169083151502179055508173ffffffffffffffffffffffffffffffffffffffff168373ffffffffffffffffffffffffffffffffffffffff167f17307eab39ab6107e8899845ad3d59bd9653f200f220920489ca2b5937696c318360405161166b919061297c565b60405180910390a3505050565b6116838484846111d2565b61168f84848484611939565b6116ce576040517f08c379a00000000000000000000000000000000000000000000000000000000081526004016116c5906129b9565b60405180910390fd5b50505050565b60606116df82610fc7565b61171e576040517f08c379a000000000000000000000000000000000000000000000000000000000815260040161171590612b59565b60405180910390fd5b600060066000848152602001908152602001600020805461173e90612eaf565b80601f016020809104026020016040519081016040528092919081815260200182805461176a90612eaf565b80156117b75780601f1061178c576101008083540402835291602001916117b7565b820191906000526020600020905b81548152906001019060200180831161179a57829003601f168201915b5050505050905060006117c8611ad0565b90506000815114156117de578192505050611821565b6000825111156118135780826040516020016117fb9291906128f1565b60405160208183030381529060405292505050611821565b61181c84611ae7565b925050505b919050565b6001816000016000828254019250508190555050565b600081600001549050919050565b611864828260405180602001604052806000815250611b8e565b5050565b61187182610fc7565b6118b0576040517f08c379a00000000000000000000000000000000000000000000000000000000081526004016118a790612b19565b60405180910390fd5b806006600084815260200190815260200160002090805190602001906118d79291906120b0565b505050565b505050565b505050565b6118ef81611be9565b600060066000838152602001908152602001600020805461190f90612eaf565b905014611936576006600082815260200190815260200160002060006119359190612136565b5b50565b600061195a8473ffffffffffffffffffffffffffffffffffffffff16611d06565b15611ac3578373ffffffffffffffffffffffffffffffffffffffff1663150b7a02611983611033565b8786866040518563ffffffff1660e01b81526004016119a59493929190612930565b602060405180830381600087803b1580156119bf57600080fd5b505af19250505080156119f057506040513d601f19601f820116820180604052508101906119ed91906124f0565b60015b611a73573d8060008114611a20576040519150601f19603f3d011682016040523d82523d6000602084013e611a25565b606091505b50600081511415611a6b576040517f08c379a0000000000000000000000000000000000000000000000000000000008152600401611a62906129b9565b60405180910390fd5b805181602001fd5b63150b7a0260e01b7bffffffffffffffffffffffffffffffffffffffffffffffffffffffff1916817bffffffffffffffffffffffffffffffffffffffffffffffffffffffff191614915050611ac8565b600190505b949350505050565b606060405180602001604052806000815250905090565b6060611af282610fc7565b611b31576040517f08c379a0000000000000000000000000000000000000000000000000000000008152600401611b2890612bb9565b60405180910390fd5b6000611b3b611ad0565b90506000815111611b5b5760405180602001604052806000815250611b86565b80611b6584611d29565b604051602001611b769291906128f1565b6040516020818303038152906040525b915050919050565b611b988383611ed6565b611ba56000848484611939565b611be4576040517f08c379a0000000000000000000000000000000000000000000000000000000008152600401611bdb906129b9565b60405180910390fd5b505050565b6000611bf482610a15565b9050611c02816000846118dc565b611c0d60008361103b565b6001600360008373ffffffffffffffffffffffffffffffffffffffff1673ffffffffffffffffffffffffffffffffffffffff1681526020019081526020016000206000828254611c5d9190612dc5565b925050819055506002600083815260200190815260200160002060006101000a81549073ffffffffffffffffffffffffffffffffffffffff021916905581600073ffffffffffffffffffffffffffffffffffffffff168273ffffffffffffffffffffffffffffffffffffffff167fddf252ad1be2c89b69c2b068fc378daa952ba7f163c4a11628f55a4df523b3ef60405160405180910390a4611d02816000846118e1565b5050565b6000808273ffffffffffffffffffffffffffffffffffffffff163b119050919050565b60606000821415611d71576040518060400160405280600181526020017f30000000000000000000000000000000000000000000000000000000000000008152509050611ed1565b600082905060005b60008214611da3578080611d8c90612f12565b915050600a82611d9c9190612d94565b9150611d79565b60008167ffffffffffffffff811115611de5577f4e487b7100000000000000000000000000000000000000000000000000000000600052604160045260246000fd5b6040519080825280601f01601f191660200182016040528015611e175781602001600182028036833780820191505090505b5090505b60008514611eca57600182611e309190612dc5565b9150600a85611e3f9190612f5b565b6030611e4b9190612d3e565b60f81b818381518110611e87577f4e487b7100000000000000000000000000000000000000000000000000000000600052603260045260246000fd5b60200101907effffffffffffffffffffffffffffffffffffffffffffffffffffffffffffff1916908160001a905350600a85611ec39190612d94565b9450611e1b565b8093505050505b919050565b600073ffffffffffffffffffffffffffffffffffffffff168273ffffffffffffffffffffffffffffffffffffffff161415611f46576040517f08c379a0000000000000000000000000000000000000000000000000000000008152600401611f3d90612b39565b60405180910390fd5b611f4f81610fc7565b15611f8f576040517f08c379a0000000000000000000000000000000000000000000000000000000008152600401611f8690612a19565b60405180910390fd5b611f9b600083836118dc565b6001600360008473ffffffffffffffffffffffffffffffffffffffff1673ffffffffffffffffffffffffffffffffffffffff1681526020019081526020016000206000828254611feb9190612d3e565b92505081905550816002600083815260200190815260200160002060006101000a81548173ffffffffffffffffffffffffffffffffffffffff021916908373ffffffffffffffffffffffffffffffffffffffff160217905550808273ffffffffffffffffffffffffffffffffffffffff16600073ffffffffffffffffffffffffffffffffffffffff167fddf252ad1be2c89b69c2b068fc378daa952ba7f163c4a11628f55a4df523b3ef60405160405180910390a46120ac600083836118e1565b5050565b8280546120bc90612eaf565b90600052602060002090601f0160209004810192826120de5760008555612125565b82601f106120f757805160ff1916838001178555612125565b82800160010185558215612125579182015b82811115612124578251825591602001919060010190612109565b5b5090506121329190612176565b5090565b50805461214290612eaf565b6000825580601f106121545750612173565b601f0160209004906000526020600020908101906121729190612176565b5b50565b5b8082111561218f576000816000905550600101612177565b5090565b60006121a66121a184612c99565b612c74565b9050828152602081018484840111156121be57600080fd5b6121c9848285612e6d565b509392505050565b60006121e46121df84612cca565b612c74565b9050828152602081018484840111156121fc57600080fd5b612207848285612e6d565b509392505050565b60008135905061221e8161363c565b92915050565b60008135905061223381613653565b92915050565b6000813590506122488161366a565b92915050565b60008151905061225d8161366a565b92915050565b600082601f83011261227457600080fd5b8135612284848260208601612193565b91505092915050565b600082601f83011261229e57600080fd5b81356122ae8482602086016121d1565b91505092915050565b6000813590506122c681613681565b92915050565b6000602082840312156122de57600080fd5b60006122ec8482850161220f565b91505092915050565b6000806040838503121561230857600080fd5b60006123168582860161220f565b92505060206123278582860161220f565b9150509250929050565b60008060006060848603121561234657600080fd5b60006123548682870161220f565b93505060206123658682870161220f565b9250506040612376868287016122b7565b9150509250925092565b6000806000806080858703121561239657600080fd5b60006123a48782880161220f565b94505060206123b58782880161220f565b93505060406123c6878288016122b7565b925050606085013567ffffffffffffffff8111156123e357600080fd5b6123ef87828801612263565b91505092959194509250565b6000806040838503121561240e57600080fd5b600061241c8582860161220f565b925050602061242d85828601612224565b9150509250929050565b6000806040838503121561244a57600080fd5b60006124588582860161220f565b925050602083013567ffffffffffffffff81111561247557600080fd5b6124818582860161228d565b9150509250929050565b6000806040838503121561249e57600080fd5b60006124ac8582860161220f565b92505060206124bd858286016122b7565b9150509250929050565b6000602082840312156124d957600080fd5b60006124e784828501612239565b91505092915050565b60006020828403121561250257600080fd5b60006125108482850161224e565b91505092915050565b60006020828403121561252b57600080fd5b6000612539848285016122b7565b91505092915050565b61254b81612df9565b82525050565b61255a81612e0b565b82525050565b600061256b82612cfb565b6125758185612d11565b9350612585818560208601612e7c565b61258e81613048565b840191505092915050565b60006125a482612d06565b6125ae8185612d22565b93506125be818560208601612e7c565b6125c781613048565b840191505092915050565b60006125dd82612d06565b6125e78185612d33565b93506125f7818560208601612e7c565b80840191505092915050565b6000612610603283612d22565b915061261b82613059565b604082019050919050565b6000612633602683612d22565b915061263e826130a8565b604082019050919050565b6000612656602583612d22565b9150612661826130f7565b604082019050919050565b6000612679601c83612d22565b915061268482613146565b602082019050919050565b600061269c602583612d22565b91506126a78261316f565b604082019050919050565b60006126bf602483612d22565b91506126ca826131be565b604082019050919050565b60006126e2601983612d22565b91506126ed8261320d565b602082019050919050565b6000612705602c83612d22565b915061271082613236565b604082019050919050565b6000612728603883612d22565b915061273382613285565b604082019050919050565b600061274b602a83612d22565b9150612756826132d4565b604082019050919050565b600061276e602983612d22565b915061277982613323565b604082019050919050565b6000612791602e83612d22565b915061279c82613372565b604082019050919050565b60006127b4602083612d22565b91506127bf826133c1565b602082019050919050565b60006127d7603183612d22565b91506127e2826133ea565b604082019050919050565b60006127fa602c83612d22565b915061280582613439565b604082019050919050565b600061281d602083612d22565b915061282882613488565b602082019050919050565b6000612840602f83612d22565b915061284b826134b1565b604082019050919050565b6000612863602e83612d22565b915061286e82613500565b604082019050919050565b6000612886602183612d22565b91506128918261354f565b604082019050919050565b60006128a9603183612d22565b91506128b48261359e565b604082019050919050565b60006128cc603083612d22565b91506128d7826135ed565b604082019050919050565b6128eb81612e63565b82525050565b60006128fd82856125d2565b915061290982846125d2565b91508190509392505050565b600060208201905061292a6000830184612542565b92915050565b60006080820190506129456000830187612542565b6129526020830186612542565b61295f60408301856128e2565b81810360608301526129718184612560565b905095945050505050565b60006020820190506129916000830184612551565b92915050565b600060208201905081810360008301526129b18184612599565b905092915050565b600060208201905081810360008301526129d281612603565b9050919050565b600060208201905081810360008301526129f281612626565b9050919050565b60006020820190508181036000830152612a1281612649565b9050919050565b60006020820190508181036000830152612a328161266c565b9050919050565b60006020820190508181036000830152612a528161268f565b9050919050565b60006020820190508181036000830152612a72816126b2565b9050919050565b60006020820190508181036000830152612a92816126d5565b9050919050565b60006020820190508181036000830152612ab2816126f8565b9050919050565b60006020820190508181036000830152612ad28161271b565b9050919050565b60006020820190508181036000830152612af28161273e565b9050919050565b60006020820190508181036000830152612b1281612761565b9050919050565b60006020820190508181036000830152612b3281612784565b9050919050565b60006020820190508181036000830152612b52816127a7565b9050919050565b60006020820190508181036000830152612b72816127ca565b9050919050565b60006020820190508181036000830152612b92816127ed565b9050919050565b60006020820190508181036000830152612bb281612810565b9050919050565b60006020820190508181036000830152612bd281612833565b9050919050565b60006020820190508181036000830152612bf281612856565b9050919050565b60006020820190508181036000830152612c1281612879565b9050919050565b60006020820190508181036000830152612c328161289c565b9050919050565b60006020820190508181036000830152612c52816128bf565b9050919050565b6000602082019050612c6e60008301846128e2565b92915050565b6000612c7e612c8f565b9050612c8a8282612ee1565b919050565b6000604051905090565b600067ffffffffffffffff821115612cb457612cb3613019565b5b612cbd82613048565b9050602081019050919050565b600067ffffffffffffffff821115612ce557612ce4613019565b5b612cee82613048565b9050602081019050919050565b600081519050919050565b600081519050919050565b600082825260208201905092915050565b600082825260208201905092915050565b600081905092915050565b6000612d4982612e63565b9150612d5483612e63565b9250827fffffffffffffffffffffffffffffffffffffffffffffffffffffffffffffffff03821115612d8957612d88612f8c565b5b828201905092915050565b6000612d9f82612e63565b9150612daa83612e63565b925082612dba57612db9612fbb565b5b828204905092915050565b6000612dd082612e63565b9150612ddb83612e63565b925082821015612dee57612ded612f8c565b5b828203905092915050565b6000612e0482612e43565b9050919050565b60008115159050919050565b60007fffffffff0000000000000000000000000000000000000000000000000000000082169050919050565b600073ffffffffffffffffffffffffffffffffffffffff82169050919050565b6000819050919050565b82818337600083830152505050565b60005b83811015612e9a578082015181840152602081019050612e7f565b83811115612ea9576000848401525b50505050565b60006002820490506001821680612ec757607f821691505b60208210811415612edb57612eda612fea565b5b50919050565b612eea82613048565b810181811067ffffffffffffffff82111715612f0957612f08613019565b5b80604052505050565b6000612f1d82612e63565b91507fffffffffffffffffffffffffffffffffffffffffffffffffffffffffffffffff821415612f5057612f4f612f8c565b5b600182019050919050565b6000612f6682612e63565b9150612f7183612e63565b925082612f8157612f80612fbb565b5b828206905092915050565b7f4e487b7100000000000000000000000000000000000000000000000000000000600052601160045260246000fd5b7f4e487b7100000000000000000000000000000000000000000000000000000000600052601260045260246000fd5b7f4e487b7100000000000000000000000000000000000000000000000000000000600052602260045260246000fd5b7f4e487b7100000000000000000000000000000000000000000000000000000000600052604160045260246000fd5b6000601f19601f8301169050919050565b7f4552433732313a207472616e7366657220746f206e6f6e20455243373231526560008201527f63656976657220696d706c656d656e7465720000000000000000000000000000602082015250565b7f4f776e61626c653a206e6577206f776e657220697320746865207a65726f206160008201527f6464726573730000000000000000000000000000000000000000000000000000602082015250565b7f4552433732313a207472616e736665722066726f6d20696e636f72726563742060008201527f6f776e6572000000000000000000000000000000000000000000000000000000602082015250565b7f4552433732313a20746f6b656e20616c7265616479206d696e74656400000000600082015250565b7f506c656173652070617920746865206d696e74696e672066656520746f20707260008201527f6f63656564000000000000000000000000000000000000000000000000000000602082015250565b7f4552433732313a207472616e7366657220746f20746865207a65726f2061646460008201527f7265737300000000000000000000000000000000000000000000000000000000602082015250565b7f4552433732313a20617070726f766520746f2063616c6c657200000000000000600082015250565b7f4552433732313a206f70657261746f7220717565727920666f72206e6f6e657860008201527f697374656e7420746f6b656e0000000000000000000000000000000000000000602082015250565b7f4552433732313a20617070726f76652063616c6c6572206973206e6f74206f7760008201527f6e6572206e6f7220617070726f76656420666f7220616c6c0000000000000000602082015250565b7f4552433732313a2062616c616e636520717565727920666f7220746865207a6560008201527f726f206164647265737300000000000000000000000000000000000000000000602082015250565b7f4552433732313a206f776e657220717565727920666f72206e6f6e657869737460008201527f656e7420746f6b656e0000000000000000000000000000000000000000000000602082015250565b7f45524337323155524953746f726167653a2055524920736574206f66206e6f6e60008201527f6578697374656e7420746f6b656e000000000000000000000000000000000000602082015250565b7f4552433732313a206d696e7420746f20746865207a65726f2061646472657373600082015250565b7f45524337323155524953746f726167653a2055524920717565727920666f722060008201527f6e6f6e6578697374656e7420746f6b656e000000000000000000000000000000602082015250565b7f4552433732313a20617070726f76656420717565727920666f72206e6f6e657860008201527f697374656e7420746f6b656e0000000000000000000000000000000000000000602082015250565b7f4f776e61626c653a2063616c6c6572206973206e6f7420746865206f776e6572600082015250565b7f4552433732314d657461646174613a2055524920717565727920666f72206e6f60008201527f6e6578697374656e7420746f6b656e0000000000000000000000000000000000602082015250565b7f436f6e74726163742042616c616e63653a20303b204e6f7468696e6720746f2060008201527f7769746864726177206865726521000000000000000000000000000000000000602082015250565b7f4552433732313a20617070726f76616c20746f2063757272656e74206f776e6560008201527f7200000000000000000000000000000000000000000000000000000000000000602082015250565b7f4552433732313a207472616e736665722063616c6c6572206973206e6f74206f60008201527f776e6572206e6f7220617070726f766564000000000000000000000000000000602082015250565b7f4552433732314275726e61626c653a2063616c6c6572206973206e6f74206f7760008201527f6e6572206e6f7220617070726f76656400000000000000000000000000000000602082015250565b61364581612df9565b811461365057600080fd5b50565b61365c81612e0b565b811461366757600080fd5b50565b61367381612e17565b811461367e57600080fd5b50565b61368a81612e63565b811461369557600080fd5b5056fea2646970667358221220ed5069501a862b8a51b12cc48416465062b319e323b5ef9cca71850cf62f6b8964736f6c63430008040033",
  "linkReferences": {},
  "deployedLinkReferences": {}
}